:020000040800F2
:1000000048280020CD0400084501000847010008E9
:100010004B0100084F0100085301000800000000D8
:100020000000000000000000000000005701000870
:1000300059010008000000000F4600085B0100089D
:10004000E7040008E7040008E7040008E7040008E4
:10005000E7040008E7040008E7040008E7040008D4
:10006000E7040008E7040008E7040008E7040008C4
:10007000E7040008E7040008E7040008E7040008B4
:10008000E7040008E7040008E7040008E7040008A4
:10009000E7040008E7040008E7040008E704000894
:1000A000E7040008E7040008E7040008E704000884
:1000B000E7040008E7040008E7040008E704000874
:1000C000E7040008E7040008E7040008E704000864
:1000D000E7040008E704000847270008E7040008D1
:1000E000E7040008E7040008E7040008E704000844
:1000F000E7040008E7040008E7040008E704000834
:10010000E7040008E7040008E7040008E704000823
:10011000E7040008E7040008E7040008E704000813
:10012000E7040008E7040008E7040008E704000803
:10013000DFF80CD004F0BEFB004800476D0100085A
:1001400048280020704700BFFEE700BFFEE700BF61
:10015000FEE700BFFEE77047704710B503F086FB6F
:1001600003F0C0FC03F09DFB10BD000010B503F0D0
:1001700032FA03F067FB0923074A0021074803F01E
:1001800044FE0A23064A0021064803F03EFE03F01F
:100190002EFC002010BD0000701200200F0200088D
:1001A00070140020CB01000810B5002002F0BAFF47
:1001B000012388A200210A2002F0ECFF01238AA279
:1001C0000221142002F0E6FF10BD1FE002F0EEFC59
:1001D00089490870002411E087480078204100F028
:1001E000010048B1854804F047FB054623462A46EE
:1001F0008249002002F06AFD601CC4B2052CEBDBD2
:10020000002301221946184604F036F9DEE708B546
:10021000FFF7CAFF7AA17E4804F08AFB01237C4ADB
:100220000421002002F0B6FF7A487BA102687E48D4
:1002300004F07EFB01237C4A0621142002F0AAFF71
:1002400014217A4802F0F2FCC3E0002002F072FDB3
:10025000774908607748B0F80004C00B00287CD0CC
:10026000002240F22551744801F01BFF73A1714830
:1002700004F0F0FA08B1012000E00020D8B1654890
:100280000068052804D16FA1614804F051FB4DE0DE
:1002900003F0B9F871480068401C704908605D4877
:1002A0000068401C5B4908606C486DA102685848B2
:1002B00004F03EFB3AE070A15E4804F0CBFA08B1CE
:1002C000012000E00020D0B15248006820B96CA1A4
:1002D0004F4804F02DFB29E04E480068401E4D4970
:1002E000086003F09CF86B480068401C694908608E
:1002F000084669A10268464804F01AFB16E06CA1A2
:100300004C4804F0A7FA08B1012000E0002068B1D1
:1003100069480823802200210090084602F0D4FF9B
:10032000002302221946184604F0A6F863A14148AA
:1003300004F090FA6349086090B10846006840797B
:10034000303861490870394804F096FA04465E482E
:10035000037822463549002000E01FE002F0B6FC99
:10036000002301221946184604F086F803F051F8DC
:1003700003F05BF8FFF718FF0123254A0421002052
:1003800002F008FF234824A10268274804F0D0FAAD
:100390000123254A0621142002F0FCFE2548B0F86E
:1003A00000046FF30E002349A1F800040846B0F8DA
:1003B000000420F40040A1F80004012240F225517D
:1003C0001D4801F06EFE002301221946184604F074
:1003D00053F83AE74F6C697665722D7061726B69FC
:1003E0006E67206C6F74210057656C636F6D6520BC
:1003F000686F6D65210000001808002019080020B2
:100400002020202020203C53746172743E20000084
:100410000A1500200C080020436172206E756D6281
:1004200065723A2025640000D8140020741400205E
:10043000000800203C15002000440040454E544573
:100440005200000046696C6C65642146696C6C65FD
:10045000642146696C6C656421000000100800206E
:100460002020256420636172732068617320656EAB
:1004700074657265642100004C45415645000000DA
:10048000202041726520796F75206B696464696E04
:10049000673F00001408002020202564206361725B
:1004A0007320686173206C656176656421000000CB
:1004B000504C415900000000000400202B495044DA
:1004C0002C0000000408002008080020064880478F
:1004D00006480047FEE7FEE7FEE7FEE7FEE7FEE729
:1004E000FEE7FEE7FEE7FEE7D32300083101000840
:1004F00031490143314A1160704770B50021002332
:100500000F22C47804B32D4C246804F4E064C4F5CD
:10051000E064210AC1F10403CA40447804FA03F1FB
:100520008478144021430901254C0678A1550478AC
:1005300004F01F050124AC4005786D11AD0005F1F4
:10054000E025C5F8004109E0047804F01F05012406
:10055000AC401C4D0678761145F8264070BD1A4A0D
:100560000A400243154B1B1F1A60704739B1134AEA
:10057000121D12680243114B1B1D1A6006E00F4A40
:10058000121D126882430D4B1B1D1A607047042810
:1005900008D14FF0E021096941F004014FF0E02259
:1005A000116107E04FF0E021096921F004014FF0EB
:1005B000E0221161704700000000FA050CED00E038
:1005C00000E400E080E100E080FFFF1F10B504467A
:1005D000CC48844208D10121042000F02FFD0021E5
:1005E000042000F02BFD46E0C748844208D10121D9
:1005F000082000F023FD0021082000F01FFD3AE054
:10060000C248844208D10121102000F017FD0021CA
:10061000102000F013FD2EE0BD48844208D10121D6
:10062000202000F00BFD0021202000F007FD22E03B
:10063000B848844208D10121402000F0FFFC00218D
:10064000402000F0FBFC16E0B348844208D10121B1
:10065000802000F0F3FC0021802000F0EFFC0AE095
:10066000AE48844207D10121801500F0E7FC00214B
:10067000A01500F0E3FC10BD10B50121084600F004
:10068000DDFC0021012000F0D9FC10BD2DE9F04176
:10069000024600250026002000230024002791F8B0
:1006A00003C00CF00F0591F803C00CF0100CBCF166
:1006B000000F03D091F802C04CEA050591F800C084
:1006C000BCF1000F31D0146800202BE04FF0010C7A
:1006D0000CFA00F3B1F800C00CEA03069E4220D1E8
:1006E00083004FF00F0C0CFA03F7BC4305FA03FC30
:1006F0004CEA040491F803C0BCF1280F06D14FF076
:10070000010C0CFA00FCC2F814C00AE091F803C016
:10071000BCF1480F05D14FF0010C0CFA00FCC2F8F7
:1007200010C0401C0828D1D31460B1F800C0BCF13F
:10073000FF0F34DD546800202EE000F1080C4FF06C
:10074000010808FA0CF3B1F800C00CEA03069E4257
:1007500021D183004FF00F0C0CFA03F7BC4305FACC
:1007600003FC4CEA040491F803C0BCF1280F05D146
:1007700000F1080C08FA0CF8C2F8148091F803C0D4
:10078000BCF1480F07D100F1080C4FF0010808FA3E
:100790000CF8C2F81080401C0828CED35460BDE885
:1007A000F0814FF6FF710180022181700421C17038
:1007B00070470246002093680B400BB1012000E017
:1007C000002070470146886880B2704702460020CA
:1007D000D3680B400BB1012000E0002070470146B8
:1007E000C86880B2704701617047416170470AB1C3
:1007F000016100E041617047C16070474FF4803291
:100800000A4382618161826182698269704702461E
:100810000020434B18684FF68073184040EA0210DE
:1008200008433F4B186070473E49C8617047F0B5B8
:100830000A46002300240021002500F00046B6F1FE
:10084000004F02D1364EF16901E0354E7168C0F3B8
:10085000034583B200F44016B6F5401F08D121F0DD
:1008600070612F4E766826F070662D4F7E6012E024
:1008700000F48016B6F5801F06D1032606FA05F4AB
:10088000A14341F0706106E0460D360103FA06F619
:10089000B14341F0706122B1460D360103FA06F60C
:1008A000314300F00046B6F1004F02D11C4EF16119
:1008B00001E01B4E7160F0BD30B500228B071C0FAC
:1008C0000F2303FA04F2164B08338C1053F824302C
:1008D0009343134C08348D1044F8253023468C1074
:1008E00053F824308C07240F00FA04F423430C4CF3
:1008F00008348D1044F8253030BD0A49DC310860D9
:100900007047000000080140000C01400010014049
:100910000014014000180140001C0140002001406B
:10092000000001400000204210B50446F748844210
:1009300009D10121480500F08EFB00214FF4001081
:1009400000F089FB08E00121880500F084FB00210C
:100950004FF4800000F07FFB10BD2DE9F04385B01F
:1009600004460D460026B1460427DFF8A483A68876
:100970004FF6C0700640684600F0D9FADDF80880EE
:10098000E448B8FBF0F01FFA80F946EA0906A680B1
:1009900020884FF6FE71084020800026DE49286836
:1009A00088420CD828684000B8FBF0F087B2042FCA
:1009B00000DA04273E4309F10100208427E0E8889B
:1009C0004BF6FF71884206D1286800EB4000B8FB67
:1009D000F0F087B209E0286800EBC00101EB0010DD
:1009E000B8FBF0F087B247F48047C7F30B0008B9B3
:1009F00047F0010747F4004006434FF4967009FBA7
:100A000000F04FF47A7190FBF1F0401C2084A68333
:100A1000208840F00100208026884FF6F5300640FF
:100A2000A8886989084306432680A889298908433C
:100A3000208105B0BDE8F08341F2883101600021DA
:100A400081804BF6FF71C1800021018141814FF40B
:100A500080418181704721B1028842F00102028009
:100A600004E002884FF6FE731A400280704721B1FD
:100A7000828842F40062828004E082884FF2FF7331
:100A80001A408280704721B1828842F4805282806D
:100A900004E082884EF6FF731A408280704721B1CD
:100AA000028842F48072028004E002884FF6FF63FD
:100AB0001A400280704721B1028842F4007202801D
:100AC00004E002884FF6FF531A400280704721B1BC
:100AD000028842F48062028004E002884FF6FF330D
:100AE0001A40028070470A46002181894FF601733F
:100AF000194002F0FE0319438181704721B18289B8
:100B000042F00102828104E082894FF6FE731A40AE
:100B10008281704721B1028842F04002028004E0E5
:100B200002884FF6BF731A40028070471AB183885B
:100B30000B43838002E083888B438380704701826C
:100B400070470146088AC0B2704712B141F00101F6
:100B500002E04FF6FE7319400182704708B5024665
:100B600000200090009200980844009000980088AF
:100B700008BD21B1028842F40042028003E00288ED
:100B8000C2F30E0202807047B1F5006F04D10288F3
:100B900042F40062028004E002884FF2FF731A40C0
:100BA00002807047B1F5005F04D1028842F4005220
:100BB000028004E002884DF6FF731A4002807047FD
:100BC00021B1028842F48052028004E002884EF68D
:100BD000FF731A4002807047B1F5006F04D102889C
:100BE00042F40062028004E002884FF2FF731A4070
:100BF0000280704721B1028842F02002028004E0A6
:100C000002884FF6DF731A40028070470146088B56
:100C10000012704721B1028842F01002028004E005
:100C200002884FF6EF731A400280704721B902889C
:100C300042F08002028004E002884FF67F731A407F
:100C400002807047B1F5804F05D0828B4BF6FF7361
:100C50001A40828303E0828B42F480428283704791
:100C600070B502460024002500230020958A138BCE
:100C70001B0445EA030626F07F4404EA01068E427F
:100C800001D1012000E0002070BD10B50146002018
:100C9000002300228B8A0A8B120443EA020424F008
:100CA0007F4010BD0CB50246002000230193009345
:100CB00000920B0F019321F07F41019B1BB1009B20
:100CC0001433009303E0090C009B18330093009B3E
:100CD0001B680B400BB1012000E000200CBD00227E
:100CE00021F07F42D3438382704730B50246002013
:100CF0000023948801F0E06504EA154321F07F4168
:100D0000948A0C4054B14BB1012008E000540040DB
:100D100000127A0040420F00A0860100002030BD82
:100D2000002221F07F42D34383827047DF4800686E
:100D300040F00100DD49086008464068DC49084091
:100D4000DA49486008460068DA490840D74908602F
:100D50000846006820F4802008600846406820F4B7
:100D6000FE0048604FF41F0088607047CF49096853
:100D700021F48031CD4A11601146096821F48021A7
:100D80001160B0F5803F03D0B0F5802F0ED106E0A2
:100D9000C649096841F48031C44A116007E0C3497B
:100DA000096841F4A021C14A116000E000BF00BF02
:100DB000704710B501460022002300204A11012A85
:100DC00002D1BA4C236806E0022A02D1B74C236A4A
:100DD00001E0B64C636A01F01F02012494401C40FC
:100DE0000CB1012000E0002010BD38B500200090BB
:100DF0000024002500BF3120FFF7DBFF05460098E7
:100E0000401C00900098B0F5A06F01D0002DF2D0EA
:100E10003120FFF7CEFF08B1012400E00024204676
:100E200038BD01460020A14A106820F0F80040EAD1
:100E3000C10010607047A04908607047024600205A
:100E40009A4B586820F47C1042EA01031843974BF0
:100E50005860704798490866704701460020934AD9
:100E6000506820F003000843506070478F48406886
:100E700000F00C007047014600208C4A506820F0BA
:100E8000F00008435060704701460020874A5068D0
:100E900020F4E06008435060704701460020834A18
:100EA000506820F4605040EAC1005060704729B19A
:100EB0007E4A527A02437D4B5A7204E07B4A527A50
:100EC00082437A4B5A7270477B49D8310860704729
:100ED00001460020754A506820F4404008435060A5
:100EE00070470021714A20321170704A82F8201038
:100EF000012802D004280AD104E001216B4A2032E3
:100F0000117005E00521694A2032117000E000BF30
:100F100000BF70476949086070476449096A014326
:100F2000624A11627047654944390860704730B5BC
:100F300000210022002400235C4D6D6805F00C01A7
:100F400021B1042905D0082923D105E05C4D0560B5
:100F500022E05B4D05601FE0544D6D6805F4701292
:100F6000524D6D6805F48034022505EB92421CB9A0
:100F7000544D554305600BE04C4D6D6805F400354C
:100F80001DB1504D5543056002E04D4D5543056080
:100F900002E04B4D056000BF00BF444D6D6805F099
:100FA000F0010909484D6B5C0568DD4045603F4D27
:100FB0006D6805F4E061090A434D6B5C4568DD40EE
:100FC00085603A4D6D6805F46051C90A3E4D6B5C11
:100FD0004568DD40C560354D6D6805F44041890BBD
:100FE0003A4D6B5CC568B5FBF3F5056130BD29B1C1
:100FF0002E4A526902432D4B5A6104E02B4A526932
:1010000082432A4B5A61704729B1284A92690243A8
:10101000264B9A6104E0254A92698243234B9A61E8
:10102000704729B1214AD2690243204BDA6104E0BA
:101030001E4AD26982431D4BDA61704729B11B4AAF
:10104000D2680243194BDA6004E0184AD26882433E
:10105000164BDA60704729B1144A12690243134BE8
:101060001A6104E0114A12698243104B1A617047F9
:1010700012494039086070470F49C86470470B49EE
:10108000C87170470948406A40F08070074948625B
:10109000704701460020054A92680A400AB10120C3
:1010A00000E000207047014988727047001002403C
:1010B0000000FFF8FFFFF6FE0000424280044242BB
:1010C00000127A0000093D00730900208309002006
:1010D00010B50446FE48844208D10121C014FFF730
:1010E000ADFF0021E014FFF7A9FFC4E0B4F1804F89
:1010F00008D101210846FFF7AEFF00210120FFF7CC
:10110000AAFFB8E0F348844208D101210220FFF78A
:10111000A2FF00210220FFF79EFFACE0EE488442D0
:1011200008D101210420FFF796FF00210420FFF7DA
:1011300092FFA0E0E948844208D101210820FFF78E
:101140008AFF00210820FFF786FF94E0E4488442EC
:1011500008D101211020FFF77EFF00211020FFF7AA
:101160007AFF88E0DF48844208D101212020FFF780
:1011700072FF00212020FFF76EFF7CE0DA488442F6
:1011800008D101214014FFF759FF00216014FFF737
:1011900055FF70E0D548844209D10121C804FFF70A
:1011A0004DFF00214FF40020FFF748FF63E0D048D7
:1011B000844209D101210805FFF740FF00214FF4C7
:1011C0008010FFF73BFF56E0CA48844209D1012155
:1011D0004805FFF733FF00214FF40010FFF72EFF03
:1011E00049E0C548844208D101214020FFF733FF80
:1011F00000214020FFF72FFF3DE0C048844208D186
:1012000001218020FFF727FF00218020FFF723FF27
:1012100031E0BB48844208D101218015FFF71BFF54
:101220000021A015FFF717FF25E0B648844209D139
:1012300001210804FFF702FF00214FF48030FFF77F
:10124000FDFE18E0B048844209D101214804FFF7AF
:10125000F5FE00214FF40030FFF7F0FE0BE0AB4845
:10126000844208D101218804FFF7E8FE00214FF4F1
:101270008020FFF7E3FE10BD00220288944B9842C5
:101280000ED0994B98420BD0B0F1804F08D0914BC3
:10129000984205D0904B984202D0904B984204D18E
:1012A0004FF68F731A404B881A438D4B984207D0E4
:1012B0008C4B984204D04FF6FF431A40CB881A4318
:1012C00002808B8883850B880385814B98420BD0E5
:1012D000854B984208D08B4B984205D08A4B984258
:1012E00002D08A4B984201D10B7A03860123838274
:1012F000704770B5002400220023058C4FF6FE765F
:1013000035400584028C8388048B4FF68F752C4002
:10131000B51E2C400D882C43751E2A400D892A438A
:101320004D882A436A4DA8420BD06F4DA84208D081
:10133000744DA84205D0744DA84202D0734DA84206
:1013400013D14FF6F7752A404D892A434FF6FB75A6
:101350002A408D882A434FF6FF652B404FF6FF55F4
:101360002B408D892B43CD892B4383800483CD88EB
:101370008586028470BD70B5002400220023058C90
:101380004FF6EF7635400584028C8388048B48F64F
:10139000FF752C404FF6FF452C400D884FF6FF7629
:1013A00006EA05252C434FF6DF752A400D8906EA2B
:1013B00005152A434D8806EA05152A43444DA842DF
:1013C00002D0494DA8421DD14FF67F752A404D8964
:1013D0004FF6FF7606EA05152A434FF6BF752A40F9
:1013E0008D8806EA05152A434FF6FF352B404FF24C
:1013F000FF752B408D8906EA85052B43CD8906EACA
:1014000085052B4383800483CD880587028470BDC6
:1014100070B5002400220023058C4FF6FF6635408E
:101420000584028C8388848B4FF68F752C404FF691
:10143000FC752C400D882C434FF6FF552A400D8932
:101440004FF6FF7606EA05252A434D8806EA05256C
:101450002A431F4DA84202D0234DA8421DD14FF26E
:10146000FF752A404D894FF6FF7606EA05252A4387
:101470004FF6FF352A408D8806EA05252A434EF6A9
:10148000FF752B404DF6FF752B408D8906EA05153B
:101490002B43CD8906EA05152B4383808483CD88B1
:1014A0008587028470BD70B5002200230024058C5E
:1014B0004EF6FF7635400584038C8488828B48F68F
:1014C000FF752A404FF6FF452A400D8820E00000B6
:1014D000002C01400004004000080040000C0040C7
:1014E000001000400014004000340140004C014056
:1014F000005001400054014000180040001C004012
:1015000000200040004001400044014000480140EC
:101510004FF6FF7606EA05252A434DF6FF752B4068
:101520000D8906EA05352B434D8806EA05352B4320
:10153000FA4DA84202D0FA4DA84208D14BF6FF75E9
:101540002C408D894FF6FF7606EA85152C43848062
:101550008283CD88A0F84050038470BD828B4FF207
:10156000FF331A408283828B4FF6FF7303EA012315
:101570001A4382837047F0B50C46154600220021BD
:101580000026078C4EF6FF7C07EA0C070784828B47
:10159000018C4FF6FF7707EA043640F6FF473A40E2
:1015A0004FF6FF7707EA05273A434FF6FF7707EA3A
:1015B00003373A43D94FB8420ED0D94FB8420BD077
:1015C000B0F1804F08D0D74FB84205D0D64FB842BF
:1015D00002D0D64FB84206D14DF6FF77394046F4D7
:1015E0008057394305E047F6FF57394044F48057A8
:1015F000394382830184F0BD828B4FF6F3731A4026
:101600008283828B0A4382837047F0B50C4615466D
:10161000002200210026078C4FF6FF6C07EA0C071A
:101620000784828B018C4FF6FF7707EA04264FF67A
:101630000C773A404FF6FF7707EA03172F433A43F8
:10164000B64FB8420ED0B64FB8420BD0B0F1804F73
:1016500008D0B44FB84205D0B34FB84202D0B34F10
:10166000B84206D14FF6FF57394046F480773943E8
:1016700005E04FF2FF57394044F4807739438283C5
:101680000184F0BD028B4FF2FF331A400283028BBC
:101690004FF6FF7303EA01231A4302837047F0B544
:1016A0000C461546002200210026078C4FF6EF7CE1
:1016B00007EA0C070784028B018C4FF6FF7707EAD5
:1016C000041640F6FF473A404FF6FF7707EA033724
:1016D0003A434FF6FF7707EA05273A438F4FB84260
:1016E0000ED08F4FB8420BD0B0F1804F08D08D4F45
:1016F000B84205D08C4FB84202D08C4FB84206D1C8
:101700004FF6DF77394046F01007394305E04FF6D2
:101710005F77394044F01007394302830184F0BDFC
:10172000028B4FF6F3731A400283028B0A43028343
:101730007047F0B50C46154600220021068C4FF686
:10174000FE773E400684028B018C4FF60C763240C9
:101750007E1C06EA03162E433243704EB0420ED072
:101760006F4EB0420BD0B0F1804F08D06D4EB042FA
:1017700005D06D4EB04202D06C4EB04206D14FF64D
:10178000FD76314044F00106314305E04FF6F57631
:10179000314044F00106314302830184F0BD70B54D
:1017A00005460C465D4885420ED05D4885420BD00B
:1017B000B5F1804F08D05B48854205D05A48854234
:1017C00002D05A48854200D100E000BF208850B9BD
:1017D0002389A28861882846FFF7ABFFE188284665
:1017E000FFF79EFF25E0208804280AD12389A288DC
:1017F00061882846FFF753FFE1882846FFF742FF3C
:1018000017E0208808280AD12389A2886188284601
:10181000FFF7FBFEE1882846FFF7EEFE09E023898B
:10182000A28861882846FFF7A6FEE1882846FFF7D0
:1018300095FE70BD2DE9F04105460C4600260127B6
:10184000608808B9022600E00026A088012801D19E
:10185000022700E001272088A0B92389A288618897
:101860002846FFF766FFE1882846FFF759FF2389DE
:101870003A4631462846FFF712FFE1882846FFF72F
:1018800001FF13E02389A28861882846FFF707FF3C
:10189000E1882846FFF7F6FE23893A463146284676
:1018A000FFF747FFE1882846FFF73AFFBDE8F081E0
:1018B0000A884B881A438B881A43CB881A430B89B2
:1018C0001A434B891A438B891A43A0F84420704766
:1018D0004FF6FF71818000210180C180418001723B
:1018E00070470021018041808180C1800181418158
:1018F0008181C18170470021018041800121818067
:101900000021C180018170470021018041808180D8
:10191000C18001814181818170470000002C01401C
:10192000003401400004004000080040000C00406A
:1019300021B1028842F00102028004E002884FF6E1
:10194000FE731A400280704731B1B0F8442042F46F
:101950000042A0F8442005E0B0F84420C2F30E0293
:10196000A0F8442070471AB183890B43838102E0B9
:1019700083898B43838170478182704741EA0203E8
:10198000A0F8483070471AB183890B43838102E085
:1019900083898B438381704701894FF6F872114028
:1019A000018170470A46002101894FF68F73194063
:1019B00011430181704730B504460D462946204643
:1019C000FFF7F0FF208940F00700208130BD2DE9AE
:1019D000F04104460D4616461F46602D06D13B4693
:1019E000012231462046FFF75AFE05E03B46012220
:1019F00031462046FFF79DFE29462046FFF7D2FFDD
:101A0000208940F007002081BDE8F08130B50C4608
:101A100000210189C9B24FF6FF7505EA0325154378
:101A200025432943018130BD2DE9F04105460E468D
:101A300017469846002443463A4631462846FFF763
:101A4000E5FF2C894FF6F870044044F007044FF688
:101A50008F70044044F070042C81BDE8F081F0B533
:101A600004460D4616461F463B463246294620464A
:101A7000FFF7CCFF208940F480402081F0BD018534
:101A8000828270470A46002101884FF68F73194001
:101A9000114301807047F0B50C4615461E460021E3
:101AA000002200230189028B038C4FF6F87739401E
:101AB00021434FF6FC473A4040F201173A434FF6B4
:101AC000DD773B404FF6FF7707EA06172F433B438E
:101AD000018102830384F0BD0A460021018B4FF689
:101AE0008F7319401143018370470A460021018B0F
:101AF00048F6FF7319404FF6FF7303EA02231943B8
:101B0000018370470A460021818B4FF68F7319407D
:101B10001143818370470A460021818B48F6FF7389
:101B200019404FF6FF7303EA02231943818370477C
:101B300021B1028842F08002028004E002884FF660
:101B40007F731A400280704721B1828842F00402FC
:101B5000828004E082884FF6FB731A4082807047CF
:101B600021B1828842F00802828004E082884FF628
:101B7000F7731A408280704721B1828842F00102D7
:101B8000828004E082884FF6FE731A40828070479C
:101B90000A460021018B4FF6F77319401143018368
:101BA00070470A460021018B4FF2FF7319404FF630
:101BB000FF7303EA02231943018370470A46002199
:101BC000818B4FF6F77319401143818370470A46A2
:101BD0000021818B4FF2FF7319404FF6FF7303EA28
:101BE00002231943818370470A460021018B4FF677
:101BF000FB7319401143018370470A460021018B92
:101C00004FF6FF3319404FF6FF7303EA02231943DF
:101C1000018370470A460021818B4FF6FB73194000
:101C20001143818370470A460021818B4FF6FF33B1
:101C300019404FF6FF7303EA02231943818370476B
:101C40000A460021018B4FF67F731940114301832F
:101C500070470A460021018BC1F30E014FF6FF7356
:101C600003EA02231943018370470A460021818B4E
:101C70004FF67F7319401143818370470A46002154
:101C8000818BC1F30E014FF6FF7303EA0223194360
:101C9000818370470A460021018C4FF6FD7319407D
:101CA0001143018470470A460021018C4FF6F773F7
:101CB00019401143018470470A460021018C4FF6F8
:101CC000DF7319404FF6FF7303EA021319430184CF
:101CD00070470A460021018C4FF67F7319404FF67A
:101CE000FF7303EA02131943018470470A46002177
:101CF000018C4FF6FF5319404FF6FF7303EA02239E
:101D00001943018470470A460021018C4FF2FF738A
:101D100019404FF6FF7303EA022319430184704709
:101D20000A460021018C4DF6FF7319404FF6FF73F0
:101D300003EA023319430184704730B500230124BC
:101D40008C40A3B2048C9C430484048C02FA01F5F9
:101D5000ADB22C43048430BD30B5002304248C4044
:101D6000A3B2048C9C430484048C02FA01F5ADB246
:101D70002C43048430BD70B503460020002418466F
:101D8000183001258D40ACB21D8CA5431D8409B1CE
:101D9000082909D100EB6100056825F07005056090
:101DA0000568154305600EE00D1FC5F34E05284478
:101DB000056825F4E045056005684FF6FF7606EAFC
:101DC00002263543056070BD21B1028842F002024F
:101DD000028004E002884FF6FD731A4002807047CB
:101DE00021B1028842F00402028004E002884FF62A
:101DF000FB731A400280704721B1828842F0800252
:101E0000828004E082884FF67F731A408280704798
:101E100002884FF6F7731A40028002880A43028054
:101E2000704782884FF68F731A40828082880A43F7
:101E30008280704702894FF6F8731A400281028946
:101E40000A430281704702894FF67F731A4002816C
:101E500002890A43028170478184704781857047F7
:101E6000818670470187704781877047A0F84010CE
:101E7000704702884FF6FF431A40028002880A43E7
:101E8000028070470146888E70470146088F704770
:101E90000146888F70470146B1F8400070470146FF
:101EA000888C70470146088D704702460020138ACF
:101EB0000B400BB1012000E000207047CA430282B2
:101EC000704730B50246002000230024158A05EA39
:101ED0000103958905EA010413B10CB1012000E06A
:101EE000002030BDCA4302827047000010B504468E
:101EF000FB48844209D101218803FFF79FF80021A4
:101F00004FF48040FFF79AF832E0F648844209D156
:101F100001214804FFF79FF800214FF40030FFF73C
:101F20009AF825E0F048844209D101218804FFF79E
:101F300092F800214FF48020FFF78DF818E0EB486D
:101F4000844209D10121C804FFF785F800214FF42C
:101F50000020FFF780F80BE0E548844208D101211A
:101F60000805FFF778F800214FF48010FFF773F8A9
:101F700010BD2DE9F04786B005460E460024A24666
:101F800000BFA1460027B08900B100BF2F462C8AB0
:101F90004CF6FF700440F08804432C82AC894EF666
:101FA000F3100440B0883189084371890843044321
:101FB000AC81AC8A4FF6FF400440B0890443AC8248
:101FC00001A8FEF7B4FFC648874202D1DDF810A091
:101FD00001E0DDF80CA0A88900F4004040B10AEB54
:101FE000CA0000EB0A1031684900B0FBF1F807E0C5
:101FF0000AEBCA0000EB0A1031688900B0FBF1F867
:102000006420B8FBF0F004012009642101FB108971
:10201000A88900F4004040B1322000EBC900B0FBB9
:10202000F1F000F00700044308E0322000EB091053
:102030006421B0FBF1F000F00F0004432C8106B0E6
:10204000BDE8F0874FF41651016000218180C18006
:1020500001810C21418100218181704710B5024628
:102060000020108A4FF2FF0318400B884C8823434E
:102070008C882343CC8823431843108210BD002151
:10208000018041808180C180704721B1828942F402
:102090000052828104E082894DF6FF731A408281EA
:1020A0007047F0B50346002400260025002040F6C6
:1020B0006A17B94200D100BF1846C1F3421401F0BB
:1020C0001F06012707FA06F5012C01D10C3004E0A8
:1020D000022C01D1103000E014301AB107682F43F0
:1020E000076002E00768AF430760F0BD1AB1838A5A
:1020F0000B43838202E0838A8B4383827047028A88
:102100004FF6F0731A400282028A0A430282704735
:1021100082894FF2FF731A40828182890A43828149
:10212000704721B1828942F00202828104E08289F3
:102130004FF6FD731A4082817047028A4FF6DF73B3
:102140001A400282028A0A430282704721B1028A3F
:1021500042F48042028204E0028A4BF6FF731A4086
:1021600002827047C1F30802828070470146888866
:10217000C0F308007047818941F0010181817047F7
:10218000028BD2B20283028B42EA012202837047A1
:10219000028B02F47F420283028B0A430283704760
:1021A00021B1828A42F02002828204E0828A4FF6C4
:1021B000DF731A408282704721B1828A42F0100296
:1021C000828204E0828A4FF6EF731A40828270475F
:1021D00021B1828A42F00802828204E0828A4FF6AC
:1021E000F7731A408282704721B1828942F400421B
:1021F000828103E08289C2F30E028281704721B19D
:10220000828A42F40062828204E0828A4FF2FF7383
:102210001A4082827047828A4FF6FB731A4082828C
:10222000828A0A438282704721B1828A42F0020286
:10223000828204E0828A4FF6FD731A4082827047E0
:1022400002460020B1F5007F00D100BF13880B408B
:102250000BB1012000E00020704701F40072B2F5DC
:10226000007F00D100BFCA430280704770B50246AC
:10227000002400230025002040F66A16B14200D158
:1022800000BFC1F3421501F01F03012606FA03F354
:10229000012D02D19689334006E0022D02D1168A23
:1022A000334001E0968A33400C12012606FA04F40A
:1022B0001688344013B10CB1012000E0002070BD3D
:1022C00010B50022002340F66A14A14200D100BFDD
:1022D0000A1201249440A3B2DC43048010BD000024
:1022E000003801400044004000480040004C0040DD
:1022F000005000400CB50020019000906C48006830
:1023000040F480306A49086000BF6948006800F402
:10231000003000900198401C0190009818B9019875
:10232000B0F5A06FF1D16248006800F4003010B140
:102330000120009001E0002000900098012843D186
:102340005C48006840F010005A4908600846006880
:1023500020F0030008600846006840F002000860B2
:1023600053484068524948600846406848600846FB
:10237000406840F4806048600846406820F47C1063
:1023800048600846406840F4E81048600846006825
:1023900040F08070086000BF4548006800F00070A1
:1023A0000028F9D04248406820F0030040494860C6
:1023B0000846406840F00200486000BF3C48406862
:1023C00000F00C000828F9D10CBD10B5FFF792FF02
:1023D00010BD10B53648006840F00100344908606F
:1023E000084640683449084031494860084600685A
:1023F000324908402E4908600846006820F48020D1
:1024000008600846406820F4FE0048604FF41F0052
:102410008860FFF7DAFF4FF000602949086010BDBF
:1024200010B5002100200022214B5B6803F00C0155
:1024300021B1042906D0082928D107E0214B224CDC
:10244000236027E01F4B204C236023E0184B5B6880
:1024500003F47010164B5B6803F48032022303EB25
:10246000904022B9194B4343174C23600DE0104BA9
:102470005B6803F4003323B1144B4343124C2360D5
:1024800003E0104B4343104C236003E00D4B0E4C14
:10249000236000BF00BF064B5B68C3F303130C4C03
:1024A000E15C094B1B68CB40074C236010BD00006A
:1024B00000100240002002400000FFF8FFFFF6FE7F
:1024C00008ED00E000127A008809002000093D00B4
:1024D0008C090020F0B503460D4616460027294614
:1024E0000A2E03D0002008702846F0BD33B93020F2
:1024F00001F8010B002008702846F6E7002B03DAEC
:102500002D2001F8010B5B4242F210720DE093FBAB
:10251000F2F404B937B104F1300001F8010B04FB07
:10252000123301270A2092FBF0F2002AEFDC002090
:1025300008702846D9E70FB470B586B006460CA8D7
:10254000019073E00B9800785C281CD10B98401C1C
:102550000B9000786E2809D072280FD10D213046DB
:10256000FFF700FE0B98401C0B900BE00A21304651
:10257000FFF7F8FD0B98401C0B9003E00B98401CF4
:102580000B9000BF4BE00B980078252840D10B98AA
:10259000401C0B900078642818D0732833D1019820
:1025A00010C801900BE021783046FFF7DBFD00BF3B
:1025B00080213046FFF744FE0028F9D0641C2078C3
:1025C0000028F0D10B98401C0B9020E0019820C807
:1025D00001900A2202A92846FFF77CFF02AC0BE01B
:1025E00021783046FFF7BEFD00BF80213046FFF75F
:1025F00027FE0028F9D0641C20780028F0D10B9821
:10260000401C0B9003E00B98401C0B9000BF06E0B1
:102610000B9810F8011B0B903046FFF7A3FD00BF8D
:1026200080213046FFF70CFE0028F9D00B98007887
:10263000002887D106B070BC5DF814FB08B50121F5
:102640000420FEF7E1FC0320ADF8000010208DF817
:10265000030003208DF802006946FC48FEF716F8D7
:102660000121FA48FEF7BFF80221F848FEF7BBF84F
:1026700008BD00B585B001210420FEF7C5FC01218D
:102680004804FEF7CEFC0420ADF8100018208DF8A9
:10269000130003208DF8120004A9EC48FDF7F6FFA3
:1026A0000820ADF8100004208DF8130004A9E748B5
:1026B000FDF7ECFF4FF4E13000900020ADF804008E
:1026C000ADF80600ADF80800ADF80C000C20ADF830
:1026D0000A006946DE48FFF74CFC012240F2255112
:1026E000DB48FFF7DEFC012240F22441D848FFF727
:1026F000D8FC0121D648FFF7C8FC05B000BD08B5DD
:102700004FF4A060FDF7F4FE26208DF800000020B5
:102710008DF801008DF8020001208DF80300684655
:10272000FDF7EBFE08BD10B5FFF788FFFFF7A1FF2F
:10273000FFF7E5FF0221C548FEF755F80121C34820
:10274000FEF753F810BD10B501F090F840F2255196
:10275000BF48FFF78BFD00B3BD48FFF707FDC4B2CC
:10276000BC48B0F80004C0F30E0040F2FF318842CC
:102770000EDAB849B1F80014C1F30E00411CB54A95
:10278000B2F8002461F30E02B249A1F800240C54FF
:1027900040F22551AE48FFF793FD40F22441AC488A
:1027A000FFF764FD012812D1AA48B0F8000420F414
:1027B000004000F50040A749A1F80004A448FFF735
:1027C000D5FCC4B240F22441A148FFF779FD01F0E5
:1027D00068F810BD10B502219C48FEF706F84FF4CA
:1027E000FA7300221146104601F046FE0221974876
:1027F000FDF7F9FF10BD2DE9F04106460C461546E0
:102800001F469448B0F800046FF30E009149A1F8F8
:102810000004324690A18E48FFF78DFE1CB915B911
:102820000120BDE8F081BBB200221146104601F044
:1028300023FE00208749B1F80014C1F30E01854A38
:102840005054B4B1ADB12146104602F003F808B1BE
:10285000012000E0002040B929467E4801F0FAFF3F
:1028600008B1012000E0002008B10120D9E70020D4
:10287000D7E744B12146774801F0ECFF08B10120C9
:10288000CFE70020CDE72946724801F0E3FF08B109
:102890000120C6E70020C4E710B5002402216B48E0
:1028A000FDF7A1FF002301221946184601F0E4FDBF
:1028B0000CE04FF4FA73002269A16AA0FFF79BFFB6
:1028C00000B110BDFFF786FF601CC4B20A2CF0DB1C
:1028D00000BFF6E710B5044624B1012C0AD0022C43
:1028E00018D10FE040F6C4135FA25DA161A0FFF70D
:1028F00082FF10BD40F6C4135BA259A160A0FFF790
:102900007AFFF6E740F6C41357A255A15FA0FFF780
:1029100072FFEEE70020ECE730B59FB004460D46AD
:102920002B4622465CA101A802F002F841F288334E
:1029300000224BA101A8FFF75EFF1FB030BD70B5AC
:10294000A0B004460D4616462B46224657A102A8C3
:10295000009601F0EDFF4FF47A73002240A102A827
:10296000FFF749FF20B070BD10B586B004460CB12A
:10297000012000E00020024652A101A801F0D8FF8A
:102980004FF4FA73002236A101A8FFF734FF06B016
:1029900010BDF0B5B9B006460F4614461D46642179
:1029A00020A801F04CFF16B1012E10D107E03B46E4
:1029B00048A249A120A8009401F0BAFF08E03B46D4
:1029C00049A245A120A8009401F0B2FF00E000BF99
:1029D00000BF052D06DA20AB2A4644A102A801F06B
:1029E000A7FF04E020AA46A102A801F0A1FF4FF42E
:1029F0007A6347A21AA102A8FFF7FDFE39B0F0BD25
:102A000070B5BCB004460D461646ECB12B4601220B
:102A100043A11EA801F08CFF324646A1684601F092
:102A200087FF4FF4FA7300220DA11EA8FFF7E3FE03
:102A300058B14FF4FA73002209A16846FFF7DBFE94
:102A400018B101203CB070BD7FE07BE00008014080
:102A5000004400403C15002025730D0A00000000D2
:102A60004F4B0000415400006E6F206368616E6739
:102A70006500000041542B43574D4F44453D310004
:102A800041542B43574D4F44453D320041542B4355
:102A9000574D4F44453D330041542B43574A415015
:102AA0003D222573222C22257322000041542B4302
:102AB000575341503D222573222C222573222C315D
:102AC0002C25640041542B4349504D55583D2564F5
:102AD0000000000054435000222573222C2225734D
:102AE000222C2573000000005544500041542B4314
:102AF000495053544152543D25642C257300000025
:102B000041542B43495053544152543D25730000C6
:102B1000414C5245415920434F4E4E4543540000CD
:102B200041542B4349505345525645523D25642C40
:102B30002573000041542B43495053544F3D257396
:102B40000000000000203CB070BD2B460022AFF218
:102B500030011EA801F0ECFE4FF4FA730022AFF230
:102B600000111EA8FFF747FEEDE710B54FF4FA730A
:102B70000022AFF21411A8A0FFF73DFEA0B1AAA158
:102B8000AC4801F067FE08B1022010BDAAA1A94817
:102B900001F060FE08B10320F7E7AAA1A54801F003
:102BA00059FE08B10420F0E70020EEE710B500243C
:102BB0004FF4FA730022AFF2581197A0FFF71BFEF3
:102BC000002831D0A2A19B4801F044FE10B144F08E
:102BD000010401E024F00104A1A1964801F03AFEAD
:102BE00010B144F0020401E024F00204A0A19148D5
:102BF00001F030FE10B144F0040401E024F00404BC
:102C00009FA18C4801F026FE10B144F0080401E0B9
:102C100024F008049EA1874801F01CFE10B144F086
:102C2000100401E024F01004204610BD2DE9F0410D
:102C300005460F464FF4FA730022AFF2DC1198A05C
:102C4000FFF7D9FD99A17B4801F004FE06460EB1BD
:102C5000B61D02E00020BDE8F081002409E0305DEF
:102C60002855285D222802D10020285503E0601C49
:102C7000C4B2BC42F3DB00BF0120ECE710B54FF457
:102C8000FA730022AFF228218AA0FFF7B4FD08B939
:102C9000002010BD4FF4FA738AA2AFF23C218AA043
:102CA000FFF7A9FDF5E710B50023012219461846E4
:102CB00001F0E2FB87A18848FFF73DFC4FF4FA736F
:102CC00000221146104601F0D7FB10BD2DE9F0415E
:102CD00086B007460C4615461E464FF0000847B121
:102CE0002246AFF2D8117C48FFF725FC4FF00108CF
:102CF0001CE0052E06DAAB1C324678A101A801F0D3
:102D000017FE04E0AA1C7AA101A801F011FE4FF4FD
:102D10007A7300227AA101A8FFF76DFD4FF47A7350
:102D2000002278A12046FFF766FD8046404606B0A7
:102D3000BDE8F08170B5044600253E48B0F80004B7
:102D40006FF30E003B49A1F800040846B0F80004F8
:102D500020F40040A1F8000400BF3648B0F8000499
:102D6000C00B0028F9D000203249B1F80014C1F39B
:102D70000E01304A505434B152A1104601F06AFDA0
:102D800038B12C4D05E061A12A4801F063FD00B186
:102D9000284D284670BD2DE9F041054664230022E8
:102DA000AFF244315BA0FFF726FD2CA1214801F0D2
:102DB00051FD8046B8F1000F09D059A11D4801F01E
:102DC00049FD00F10B07A8EB0700C6B202E00020A6
:102DD000BDE8F081002403E0385D2855601CC4B2D2
:102DE000B442F9DB0020A8550120F1E710B588B006
:102DF000044622464DA1684601F09AFD41F288330F
:102E00000022AFF2A4316846FFF7F5FC10B10120B3
:102E100008B010BD0020FBE741542B4349505354E8
:102E200041545553000000005354415455533A3215
:102E30000D0A00003C1500205354415455533A33B9
:102E40000D0A00005354415455533A340D0A000002
:102E50002B4349505354415455533A302C000000F1
:102E60002B4349505354415455533A312C000000E0
:102E70002B4349505354415455533A322C000000CF
:102E80002B4349505354415455533A332C000000BE
:102E90002B4349505354415455533A342C000000AD
:102EA00041542B43494653520000000041504950C1
:102EB0002C22000041542B4349504D4F44453D3195
:102EC000000000003E00000041542B434950534590
:102ED0004E4400002B2B2B000044004041542B4358
:102EE000495053454E443D25642C256400000000A4
:102EF00041542B43495053454E443D256400000046
:102F00003E20000053454E44204F4B002B49504477
:102F10000000000041542B43574C4946000000007C
:102F200041542B43574C49460D0D0A0041542B4345
:102F3000495041503D2225732200000000B585B064
:102F400001214805FEF76DF801210820FEF75CF825
:102F5000C020ADF8000003208DF802001C208DF881
:102F600003006946F548FDF791FBF548FDF7DCFCE9
:102F70000020ADF808004BF6FF70ADF80A003020D5
:102F8000ADF80C004FF48060ADF80E000001ADF814
:102F90001000EC4801900121E948FDF75CFD01A912
:102FA000E748FDF7DAFC05B000BD70B504460D46F4
:102FB00000BF4FF40031E248FDF774FE0028F8D15D
:102FC0000121DF48FDF76BFD00BFDF49DC48FDF75D
:102FD00047FE0028F9D000227821D948FDF7B5FD39
:102FE00000BFDA49D648FDF73BFE0028F9D021465C
:102FF000D348FDF7A4FD00BFD449891CD048FDF794
:103000002FFE0028F8D02946CD48FDF798FD00BFD7
:10301000CE49891CCA48FDF723FE0028F8D00121BB
:10302000C748FDF748FD70BD10B504462146002095
:10303000FFF7BBFF10BD10B5044621464020FFF747
:10304000B4FF10BD10B5642300221146104601F0F4
:1030500013FAAE20FFF7E8FF2020FFF7E5FF10206E
:10306000FFF7E2FFB020FFF7DFFFC820FFF7DCFF2C
:103070000020FFF7D9FF1020FFF7D6FF4020FFF711
:10308000D3FF8120FFF7D0FFFF20FFF7CDFFA12066
:10309000FFF7CAFFA620FFF7C7FFA820FFF7C4FF6E
:1030A0003F20FFF7C1FFA420FFF7BEFFD320FFF7AB
:1030B000BBFF0020FFF7B8FFD520FFF7B5FFF020DA
:1030C000FFF7B2FFD920FFF7AFFF2220FFF7ACFFD9
:1030D000DA20FFF7A9FF1220FFF7A6FFDB20FFF79A
:1030E000A3FF2020FFF7A0FF8D20FFF79DFF1420F6
:1030F000FFF79AFFAF20FFF797FF10BD70B50446AA
:103100000D4605F1B001C8B2FFF78EFF102141EA6C
:103110001410FFF789FF04F00F0141F00100FFF7E1
:1031200083FF70BD70B50646002415E004F1B001C0
:10313000C8B2FFF779FF0020FFF776FF1020FFF7F6
:1031400073FF002504E03046FFF775FF681CC5B229
:10315000802DF8DB601CC4B2082CE7DB70BD10B515
:103160000020FFF7DFFF10BD10B58D20FFF75CFFDB
:103170001420FFF759FFAF20FFF756FF10BD10B521
:103180008D20FFF751FF1020FFF74EFFAE20FFF715
:103190004BFF10BD2DE9F0470646894617469A4673
:1031A0004FF0000800240025BAF1010F03D0BAF156
:1031B000020F5ED125E020E0785D203800F0FF08A6
:1031C0007E2E04DD002609F1010000F0FF094946CA
:1031D0003046FFF793FF002409E008EB48015C4A02
:1031E00002EB4101085DFFF726FF601CC4B2062C0C
:1031F000F3DBB01DC6B2681CC5B2785D0028DBD118
:1032000037E032E0785D203800F0FF08782E04DDEA
:10321000002609F1010000F0FF0949463046FFF79A
:103220006DFF002407E004EB08114A4A505CFFF7E9
:1032300002FF601CC4B2082CF5DB09F10100C1B229
:103240003046FFF75BFF002408E004EB081108316B
:10325000404A505CFFF7EFFE601CC4B2082CF4DB60
:1032600006F10800C6B2681CC5B2785D0028C9D155
:1032700000BF00BFBDE8F0872DE9F04180460E4653
:10328000174600247D0131464046FFF737FF00BF57
:1032900006E03149485DFFF7CEFE6D1C601CC4B2EC
:1032A000102CF6DB701CC1B24046FFF727FF00244C
:1032B00006E02949485DFFF7BEFE6D1C601CC4B2E4
:1032C000102CF6DBBDE8F0812DE9F05F06460F46D5
:1032D00090461C46DDF828A04FF0000BE11704EBE8
:1032E0005171C910A4EBC10131B92046E11704EBBB
:1032F0005171C1F3C70506E02046E11704EB517197
:10330000C910491CCDB23D4614E029463046FFF7AE
:10331000F5FEB1460AE059460BF1010B1AF801001F
:10332000FFF789FE09F1010000F0FF09C145F2DB5A
:10333000681CC5B2A542E8DBBDE8F09F000C014067
:1033400000540040801A06000100030082000700BC
:103350003A4B0008624D00089C09002008B5012185
:103360000220FDF75EFE01210820FDF74DFE03203F
:10337000ADF8000018208DF8030003208DF802003E
:1033800069462D48FDF782F908BD30B587B00F2595
:103390000F24C720ADF8140041F61F40ADF810000F
:1033A0000020ADF81600ADF8120004A92348FDF77F
:1033B00063FF6020ADF800000120ADF80200ADF819
:1033C00006500020ADF8080069461C48FEF720F8BA
:1033D00008211A48FEF7F2FB0120ADF80200ADF813
:1033E000064069461548FEF75EF808211348FEF7C7
:1033F000EEFB01211148FEF79BFB01210F48FEF770
:1034000097FA07B030BD10B506210C48FEF72CFD29
:1034100010BD10B50F210948FEF726FD10BD10B5EF
:1034200006210648FEF722FD10BD10B50F21034806
:10343000FEF71CFD10BD0000000C01400004004020
:1034400010B586B00446012144F20400FDF7DCFD0E
:103450004FF40070ADF8040018208DF80700032029
:103460008DF8060001A92948FDF710F94FF4806096
:10347000ADF8040048208DF8070003208DF8060001
:1034800001A92248FDF702F902940020ADF80C00D2
:10349000ADF80E00ADF81000ADF814000C20ADF83A
:1034A000120002A91A48FEF764FD01211848FEF730
:1034B000ECFD06B010BD08B54FF4A060FDF718F89C
:1034C00025208DF8000000208DF801008DF8020005
:1034D00001208DF803006846FDF70FF808BD10B510
:1034E0004FF4E130FFF7ACFF10BD70B504460D4658
:1034F000E1B20748FEF736FE00BF40210448FEF760
:103500009FFE0128F9D1204670BD0000000801404F
:103510000038014030B5394800684FF47A72B0FB8A
:10352000F2F1B1F1807F00D31DE021F07F40401E19
:103530004FF0E022506150170F22002807DA1307DE
:103540001D0E2F4B00F00F04241F1D5503E0130721
:103550001C0E2C4B1C5400BF00204FF0E022906149
:103560000720106100BF30BD10B501212648FDF7CE
:103570003AF9FFF791F90120FFF7ACF9FFF72AF9C3
:1035800000BF22A0FFF732FC0028FAD000BF0422BF
:1035900021A124A0FFF7D3F90028F8D00120FFF7DC
:1035A000E3F900BF26A228A10120FFF729FA00288D
:1035B000F8D02648B0F800046FF30E002349A1F8B4
:1035C00000040846B0F8000420F40040A1F800040C
:1035D000FFF754FB10BD10B5FFF79CFFFFF7BEFED1
:1035E000FFF7D3FEFFF77BFFFFF7A8FCFFF72AFDED
:1035F000FFF799F8FFF7B8FF10BD00008809002019
:1036000018ED00E000E400E0000801403139322EFE
:103610003136382E342E31003132333435363738A6
:10362000390000004F6C697665725F70726976616F
:1036300074655F7061726B696E675F6C6F740000B8
:103640003138303000000000383000003C150020D8
:103650007CB5002514E06946284600F01BFE0646AE
:1036600066B9FE4850F8254044B1012C06D0D4E993
:10367000020100EB810060630198A063681CC5B281
:103680001F2DE8DD7CBD002402E0C82000F0C4FE50
:10369000F34800780028F8D0F24800686421B0FBB5
:1036A000F1F0F04908600846006828B90020EE49AA
:1036B0000870FF2000F030FE00BF00F087FF0446D6
:1036C000EA480068EA4908600020E84908602046A6
:1036D00000F080FFE6480068E2490968B0FBF1F0BD
:1036E000C0F16400E049087000F0C7FFFFF7B0FFC9
:1036F000642000F091FEE0E700B587B003200021D0
:103700008022DC4BCDE90132CDE903104FF6FE708B
:103710001E23D94A0090AFF2910000F0CEFB06AA1A
:10372000D6A11E2000F02AFD07B000BD002400BF76
:1037300000F04CFF0446CD480068401CCB490860AF
:10374000204600F047FF00F097FFF1E700B587B093
:10375000032000218022CD4BCDE90132CDE90310B9
:103760004FF6FF701F23CA4A0090AFF23F0000F0EF
:10377000A4FB06AAC7A11F2000F000FD07B000BDF2
:10378000704704E0002200F8012B4A1E91B2002984
:10379000F8DC704730B54FF4D161C248FFF7F1FF54
:1037A0008021AE48FFF7EDFFBE4B03F14C0500242E
:1037B0000AE05D613F2083F83C0000213D20C154B8
:1037C0004C334C35601CC4B2152CF2D30020586128
:1037D0003F2083F83C0000213D20C1540020B24925
:1037E0000860B048B149086030BD0022B04B1A7083
:1037F000B049002004E0002201F8012B421CD0B2A5
:103800000428F8DB0022AC4B1A70AC4B1A70AC4B9E
:103810001A60AC4B1A6070470020AB490860AB4996
:103820000870AB490870AB490870AB490870AB49E8
:1038300008608E4908608E4908608A490860884996
:103840000870704710B500F013FFFFF7E5FFFFF7B2
:10385000CCFFFFF79FFFFFF793FFFFF777FFFFF71F
:103860004BFF00F006FF00F059FF10BD9A480078AA
:10387000012808D195480078FF2804D293480078A1
:10388000401C9249087070479549894A1278885CB3
:103890008849095C924A515C01EBC001874A11706A
:1038A000704710B500248C480078012830D100F012
:1038B0008DFE044685480078002804DD83480078A2
:1038C000401E8249087081480078F0B9804800782D
:1038D000D8B9FFF7D9FF7948007877490978884245
:1038E00013D05E487549097850F821007449086082
:1038F00008460068806A401C09688862774800684A
:10390000401C7649086000F07DFE204600F062FE13
:1039100010BD10B5002470480078012811D100F0C6
:1039200055FE04466948007840B969480078FF2888
:1039300004D267480078401C65490870204600F0B2
:1039400049FE10BD10B5002400F040FE04465F485B
:103950000078F0B95E480078D8B9FFF795FF57486E
:10396000007855490978884213D03C485349097872
:1039700050F821005249086008460068806A401CDF
:103980000968886255480068401C5449086000F086
:1039900034FE204600F01EFE10BD10B500244E4837
:1039A0000078012822D100F011FE04464848007832
:1039B000002818DD46480078401E45490870084632
:1039C000007860B94148007828B9204600F002FE2E
:1039D000FFF7B8FF0AE0204600F0FCFD06E02046B5
:1039E00000F0F8FD02E0204600F0F4FD10BD10B537
:1039F0003948007890B9FFF747FF304800782E49E2
:103A0000087016482D49097850F821002C490860A3
:103A1000084600682B49086000F0DFFD10BD10B5B6
:103A20000024022000F0F8FC00F0D0FD0446002045
:103A30000E490860204600F0CDFD642000F0ECFC4B
:103A400000F0C4FD044609480068064908600120EA
:103A500003490870204600F0BDFD10BD401D002048
:103A60004C0E0020440E0020400E0020580E002076
:103A7000480E0020401900203C1B002075432F4FAA
:103A8000532D49492053746174000000401B0020ED
:103A90003C1D002075432F4F532D49492049646C2C
:103AA00065000000C01D0020680E0020600E002090
:103AB000510E0020520E00204F0E0020500E00200C
:103AC000640E00205C0E0020700E00204D0E0020C1
:103AD0004E0E0020570E0020560E00203C0E0020F7
:103AE0005253000870B5002600F017FE00F06EFD7E
:103AF000064680480068401C7E490860304600F059
:103B000069FD7D48007801284ED17C48007820B1BD
:103B1000012804D0022809D103E001250BE000258B
:103B200009E0012501207549087004E00125002005
:103B30007249087000BF00BF05B970BD70480468C5
:103B40002EE000F043FD0646A08B28B3A08B401E5C
:103B500080B2A08300BBA07F00F0370030B1A07F0F
:103B600020F03700A0770120E07701E00020E07727
:103B7000A07F00F0080078B92234A0786149097864
:103B800008436049087020785F49085C6178084301
:103B900014F822195C4A50546469304600F01AFD4A
:103BA00094F820001F28CCD100BFC6E74FF48F70D7
:103BB0007047704705E011F8013B00F8013B531EC8
:103BC0009AB2002AF7DC70470246002005E011F89F
:103BD000013B02F8013B431CD8B20B78002BF6D115
:103BE000137070470146002002E0491C421CD0B20D
:103BF0000A78002AF9D170472DE9F84F05460E469C
:103C000017469846DDE90BABDDF8289000200090C0
:103C100000F0DCFC00903D480468002C65D00834BE
:103C20003A49E0680860009800F0D4FC44F8086C59
:103C300025760020A075E075A08244F804ACC4F895
:103C400004902760A4F808B0A4F80A806077E81010
:103C5000A07605F007006076A17E012088402077DD
:103C6000617E01208840E07600202062A0626062D0
:103C7000E06220633F2084F83400083C00213D20AE
:103C80000155204600F048FD204600F0F3FC00F00E
:103C90009DFC00901E4840F825401948006860616E
:103CA0000020A0611648006810B1154800688461C2
:103CB000134804602234A078124909780843114956
:103CC000087020781049085C6178084314F82219BC
:103CD0000D4A50540F480078401C0E490870009857
:103CE00000F078FC0020BDE8F88F009800F072FC2E
:103CF0004220F8E7700E0020560E00206C0E0020C7
:103D0000680E0020510E0020520E0020600E002090
:103D1000401D0020570E00202DE9FE4F80460D4625
:103D20000020009000F052FC0090FE4850F8250062
:103D300028B1009800F04EFC2820BDE8FE8FB8F1B5
:103D4000FF0F03D1F848006890F82080F54850F83C
:103D5000284024B9009800F03DFC2920EDE7012C13
:103D600004D1009800F036FC4320E6E7EE1005F0A1
:103D700007090120B04000F0FF0A012000FA09F015
:103D800000F0FF0B0020E74941F82800084640F802
:103D9000254014F8227FA07802906078223C0190A0
:103DA000E248C15D01980140D1B1E048C05D019990
:103DB0008843DE49C8550846C05D28B9DC4800780C
:103DC00002998843DA490870D948007840EA0A0025
:103DD000D7490870D548805D40EA0B00D349885523
:103DE00084F8205084F8226084F8219084F824A07C
:103DF00084F823B0009800F0EDFBCE48007801284D
:103E000001D1FFF79FFD002097E72DE9FE4F064601
:103E10000F4690461C464FF0000900F0D7FB814644
:103E2000C5480078002805DD484600F0D3FB3C205B
:103E3000BDE8FE8FBB4850F8240060BB0120B949A3
:103E400041F82400484600F0C5FB002342463946AD
:103E5000304600F013FC824600200090019003469B
:103E60000246514602902046FFF7C6FE054635B988
:103E7000B048007801280CD1FFF764FD09E000F09C
:103E8000A5FB81460020A74941F82400484600F0E0
:103E9000A1FB2846CCE7484600F09CFB2820C7E75A
:103EA00002F0010343B102F002032BB102E0491E0C
:103EB000002308C00029FAD170472DE9F04F85B0E2
:103EC00081468A4693461C46DDE90F78129D002004
:103ED000039000F07BFB039097480078002806DDF4
:103EE000039800F077FB3C2005B0BDE8F08F8D48CB
:103EF00050F8240088BB01208A4941F82400039827
:103F000000F068FB2A4641463846FFF7C9FF2B46BA
:103F10005A465146484600F0B1FB04901198CDE94D
:103F2000008002953A4620460E9B0499FFF764FEF6
:103F3000064636B97F48007801280CD1FFF702FD0C
:103F400009E000F043FB03900020764941F824008B
:103F5000039800F03FFB3046C6E7FFE7039800F008
:103F600039FB2820C0E770B5054600267248007866
:103F7000002801DD402070BD1F2D01D13E20FAE751
:103F800000F024FB0646FF2D03D16748006890F837
:103F90002050644850F8254024B9304600F01AFB00
:103FA0004320E8E7012C04D1304600F013FB3D200C
:103FB000E1E714F8220F5D49085C617888432178B5
:103FC0005A4A505414F822091146085C30B994F842
:103FD0002410574800788843554908700020A08372
:103FE000A077E07755480078FF2804D2534800783E
:103FF000401C52490870304600F0ECFAFFF7D9FD3A
:1040000000F0E4FA06464D480078002804DD4B48ED
:104010000078401E49490870204600F02CFB4848B3
:104020000078401E4649087000203E4941F82500AE
:10403000A06930B9002061698861424960690860FF
:1040400005E0D4E905014861D4E9051088613E48DE
:10405000006860613C4804603F2084F83C00002117
:104060003D200155304600F0B5FA3248007801286D
:1040700001D1FFF767FC00207DE72DE9F041044600
:1040800000271F2C02D13E20BDE8F081FF2C0BD170
:1040900000F09CFA07462448006890F825603846EE
:1040A00000F098FA3046EFE700F090FA07461D4816
:1040B00050F8245025B9384600F08CFA4320E3E745
:1040C000012D04D1384600F085FA3D20DCE73F2081
:1040D00085F82500384600F07DFA0020D4E72DE968
:1040E000F04706460F4614464FF000081248007885
:1040F000002804DD112020700020BDE8F08700F0CA
:1041000065FA8046FF2E03D10748006890F82060CA
:10411000044850F82650DDB9404600F05BFA4320D1
:10412000207013E0401D00205C0E0020520E002085
:10413000510E0020560E00204D0E00204E0E002085
:10414000570E0020680E0020600E00200020D4E7EB
:10415000012D06D1404600F03DFA4320207000209A
:10416000CBE705F13C013846FFF72EFD814640467E
:1041700000F030FA002020704846BEE72DE9F047F5
:104180000646884614464FF000099D4800780028EE
:1041900003DD12202070BDE8F08700F017FA814699
:1041A000FF2E03D19748006890F82060964850F899
:1041B00026502DB9484600F00DFA43202070EAE75A
:1041C000012D05D1484600F005FA43202070E2E7B2
:1041D0004046FFF707FD07460F2F05DD484600F074
:1041E000F9F941202070D6E7414605F13C00FFF780
:1041F000EBFC484600F0EEF90020207000BFCAE753
:1042000070B50546002600F0E1F906467E4850F8F4
:10421000254024B9304600F0DDF9462070BD012C60
:1042200004D1304600F0D6F94320F7E7A07F00F034
:10423000080050B3A07F20F00800A077A07FF8B955
:10424000A08BC8B92234A0787049097808436F4917
:10425000087020786E49085C6178084314F82219C8
:104260006B4A5054304600F0B5F96A48007801288E
:1042700009D1FFF767FB06E0304600F0ABF902E03A
:10428000304600F0A7F90020C8E7304600F0A2F958
:104290004420C3E72DE9F04707460D464FF0000ADA
:1042A00000202860686000F091F98246FF2F03D15A
:1042B0005448006890F82070534850F827402CB9B3
:1042C000504600F087F94320BDE8F087012C04D167
:1042D000504600F07FF94320F6E7207C00F0010013
:1042E00020B9504600F076F94520EDE70026D4F8D5
:1042F0000C90D4F80880504600F06CF900E0761C71
:1043000058F8041B0029FAD0B0002860A9EB060079
:10431000800068600020D7E72DE9F04105464FF0A6
:10432000000800F053F98046FF2D05D1354800689C
:1043300090F82050012608E03248006890F82000EC
:10434000A84201D1012600E000262F4850F8254060
:104350002CB9404600F03EF94820BDE8F081012C20
:1043600004D1404600F036F94320F6E794F8227075
:104370002748C05D94F8231088432549C85508464E
:10438000C05D30B994F824102048007888431F4954
:104390000870A07F40F00800A077404600F01AF9AE
:1043A000012E01D1FFF7CEFA0020D6E72DE9F0412A
:1043B00005460E46002700F009F90746FF2D03D1F8
:1043C0001048006890F820500F4850F825402CB94C
:1043D000384600F0FFF82920BDE8F081012C04D117
:1043E000384600F0F7F84320F6E74C2221463046E5
:1043F000FFF7E0FB384600F0EDF80020ECE70000A6
:104400004D0E00205C0E0020401D0020510E0020AB
:10441000520E0020560E002070B505460026654855
:104420000078002800DD70BD002D23DD00F0CEF8FF
:1044300006466148006890F822406048005D5E4989
:10444000096891F8231088435C4908550846005DC7
:1044500040B95948006890F82410594800788843BA
:1044600057490870544800688583304600F0B2F818
:10447000FFF768FA00BFD6E72DE9F0470746884600
:1044800091461D464B480078002802DD5520BDE8C6
:10449000F0874FF47A7068434FF47A71B0FBF1F112
:1044A0004FF461607843C8EB081200EB8200484487
:1044B00000EB4002C2EBC01001EBC004260CA4B21A
:1044C0002046FFF7A9FF09E04FF40040FFF7A4FFE3
:1044D0004FF40040FFF7A0FF701E86B2002EF3DC01
:1044E0000020D4E770B5054600261F2D01DB2A20E9
:1044F00070BD00F06BF80646324850F8254024B9EC
:10450000304600F067F84320F2E7012C04D1304632
:1045100000F060F84320EBE7A08B20B9304600F0B4
:1045200059F85020E4E70020A083A07F00F0370076
:1045300030B1A07F20F03700A0770120E07701E0C4
:104540000020E077A07F00F00800A8B92234A0780E
:104550001B49097808431A49087020781749085CF4
:104560006178084314F82219144A5054304600F078
:1045700031F8FFF7E7F902E0304600F02BF80020B1
:10458000B6E770B5002500F021F805460E4804682E
:10459000284600F01FF8204670BD70B5044600257F
:1045A00000F014F8054608480460284600F012F8A8
:1045B00070BD00004D0E00205C0E0020520E002049
:1045C000510E0020401D0020700E0020EFF31080DF
:1045D00072B6704780F3108870471D484FF0FF0196
:1045E0000170002080F309881A48012101701A48DF
:1045F0004FF08051016062B6FEE717484FF08051DE
:104600000160704714484FF080510160704772B6E6
:10461000EFF3098028B1203880E8F00F0F490968CE
:10462000086000B50E4880475DF804EB0D480E4960
:104630000A78027009480D490A680260106890E81B
:10464000F00F203080F309884EF0040E62B67047F8
:1046500022ED00E0560E002004ED00E05C0E00208C
:10466000174700084F0E0020500E0020640E002057
:1046700070477047704770477047704770B5044681
:1046800010464FF080750560051F28462C606FF0BE
:104690000106051F28462E604FF01236051F2846DA
:1046A0002E604FF00336051F28462E604FF002366D
:1046B000051F28462E607610051F28462E60051F10
:1046C000284629604FF01136051F28462E604FF00E
:1046D0001036051F28462E604FF00936051F284664
:1046E0002E604FF00836051F28462E604FF0073623
:1046F000051F28462E604FF00636051F28462E60FF
:104700004FF00536051F28462E604FF00436051F72
:1047100028462E6070BD704770477047174818488C
:104720001848194819481A481A481B481B481C4879
:104730001C481D481D481E481E481F481F48204849
:104740002048214821482248224823482348244819
:1047500024482548254826482648274827482848E9
:104760002848294829482A482A482B482B482C48B9
:104770002C482D482D4800BF7047000054540008B5
:10478000585400085C5400085E5400086054000847
:104790006254000864540008665400086854000815
:1047A0006A5400086C5400086E54000870540008E5
:1047B00072540008745400087654000878540008B5
:1047C0007A5400087C5400087E5400088054000885
:1047D0008254000884540008865400088854000855
:1047E0008A5400088C5400088E5400089054000825
:1047F00092540008945400089654000898540008F5
:104800009A5400089C5400089E540008A0540008C4
:10481000A2540008A4540008A6540008A854000894
:10482000AA540008AC540008AE540008B054000864
:10483000D2B201E000F8012B491EFBD270470022E2
:10484000F6E710B513460A4604461946FFF7F0FF8F
:10485000204610BD30B505462A460B4612F8010B1E
:1048600013F8014B08B1A042F8D01CB1002802D0C7
:104870006D1CF1E7284630BD421C10F8011B0029D1
:10488000FBD1801A704730B50B460146002020222C
:10489000012409E021FA02F59D4205D303FA02F54D
:1048A000491B04FA02F52844151EA2F10102F1DCAD
:1048B00030BD0000064C074D06E0E06840F0010303
:1048C00094E8070098471034AC42F6D3FBF734FC69
:1048D000B4540008D454000870B58C1810F8015B6B
:1048E00015F0070301D110F8013B2A1106D110F889
:1048F000012B03E010F8016B01F8016B5B1EF9D18D
:104900002B0705D40023521E0DD401F8013BFAE712
:1049100010F8013BCB1A921C03E013F8015B01F87D
:10492000015B521EF9D5A142D8D3002070BD000012
:104930000FB4084B10B504A902AA039800F01CF8A4
:10494000044602A9002000F0F3F8204610BC5DF8F0
:1049500014FB0000314B000802E008C8121F08C118
:10496000002AFAD170477047002001E001C1121FF0
:10497000002AFBD1704700002DE9FF4F8BB09A460B
:104980000F460546002606E025280BD052460D9915
:1049900090476D1C761C28780028F5D10FB0304662
:1049A000BDE8F08F0024A0460122604900E00443E6
:1049B00015F8013F203B02FA03F00842F7D12878AE
:1049C0002E2817D115F8010F44F004042A280ED020
:1049D0006FF02F022878A0F1300109290AD808EBDE
:1049E000880102EB410100EB01086D1CF2E757F86A
:1049F000048B6D1C287869283ED006DC0028CDD0B9
:104A000063280BD0642804D136E0732810D07528B1
:104A10004BD052460D999047761C85E017F8040B51
:104A20008DF8000000208DF80100E946012003E028
:104A300057F8049B4FF0FF3061074FF0000401D49A
:104A40000AE0641C44450DDA8442FADB19F80410CC
:104A50000029F6D106E0641C8442FCDB19F804103E
:104A60000029F8D1264404E019F8010B52460D99AB
:104A70009047641EF8D257E001CF4FF00A0B002890
:104A800002DA40422D2102E0210504D52B218DF8C8
:104A90002410012103E0E10705D02021F7E70DF103
:104AA000200908910CE00021F9E701CF4FF00A0B33
:104AB000F9E75946FFF7E7FE01F1300209F8012D49
:104AC0000028F6D1ADEB090000F1200B600701D4FE
:104AD0004FF00108D84502DDA8EB0B0000E00020F4
:104AE0008046002406E009A85246005D0D999047D3
:104AF000641C761C08988442F5DB04E030205246A2
:104B00000D999047761CB8F10001A8F10108F5DC79
:104B100005E019F8010B52460D999047761CBBF140
:104B20000001ABF1010BF4DC6D1C34E70928010036
:104B30000A68531C0B6010707047000000000000F2
:104B40000000002F000000000700070000147F1481
:104B50007F1400242A7F2A1200626408132300367F
:104B60004955225000000503000000001C224100AE
:104B7000000041221C000014083E08140008083EF2
:104B80000808000000A060000008080808080000ED
:104B900060600000002010080402003E5149453EBC
:104BA0000000427F400000426151494600214145DA
:104BB0004B31001814127F10002745454539003C41
:104BC0004A4949300001710905030036494949360F
:104BD00000064949291E00003636000000005636FE
:104BE00000000008142241000014141414140000E2
:104BF0004122140800020151090600324959513E70
:104C0000007C1211127C007F49494936003E414127
:104C10004122007F4141221C007F49494941007FD8
:104C200009090901003E4149497A007F0808087FC7
:104C30000000417F4100002040413F01007F0814F7
:104C40002241007F40404040007F020C027F007FF5
:104C50000408107F003E4141413E007F09090906DA
:104C6000003E4151215E007F09192946004649490D
:104C700049310001017F0101003F4040403F001FDA
:104C80002040201F003F4038403F00631408146359
:104C900000070870080700615149454300007F4143
:104CA000410000552A552A55000041417F0000046B
:104CB00002010204004040404040000001020400A4
:104CC000002054545478007F484444380038444409
:104CD000442000384444487F003854545418000895
:104CE0007E0901020018A4A4A47C007F08040478B3
:104CF0000000447D4000004080847D00007F10283B
:104D000044000000417F4000007C04180478007CCF
:104D10000804047800384444443800FC242424184F
:104D20000018242418FC007C08040408004854548B
:104D3000542000043F444020003C4040207C001CA4
:104D40002040201C003C4030403C004428102844B7
:104D5000001CA0A0A07C004464544C4414141414FF
:104D6000141400000000000000000000000000001B
:104D70000000000000F800000000000000333000D8
:104D8000000000100C06100C0600000000000000DF
:104D9000000040C07840C0784000043F04043F0455
:104DA0000400007088FC08300000001820FF211E5D
:104DB0000000F008F000E018000000211C031E2194
:104DC0001E0000F00888700000001E21232419270F
:104DD000211010160E00000000000000000000006E
:104DE0000000000000E01804020000000007182086
:104DF000400000020418E0000000004020180700F6
:104E00000000404080F0804040000202010F01029B
:104E10000200000000F0000000000101011F01017C
:104E20000100000000000000000080B070000000E1
:104E3000000000000000000000000001010101016D
:104E40000101000000000000000000303000000000
:104E500000000000000080601804006018060100D7
:104E6000000000E010080810E000000F10202010E3
:104E70000F00001010F8000000000020203F20204C
:104E800000000070080808887000003028242221E3
:104E90003000003008888848300000182020201199
:104EA0000E000000C02010F8000000070424243F7A
:104EB000240000F808888808080000192120201123
:104EC0000E0000E0108888180000000F112020114B
:104ED0000E0000380808C83808000000003F000035
:104EE00000000070880808887000001C2221212220
:104EF0001C0000E010080810E00000003122221120
:104F00000F00000000C0C0000000000000303000B2
:104F10000000000000800000000000008060000031
:104F2000000000008040201008000001020408106A
:104F30002000404040404040400004040404040479
:104F40000400000810204080000000201008040227
:104F50000100007048080808F00000000030360129
:104F60000000C030C828E810E000071827242314E8
:104F70000B000000C038E0000000203C23020227A4
:104F8000382008F8888888700000203F20202011F1
:104F90000E00C0300808080838000718202020102C
:104FA000080008F808080810E000203F2020201022
:104FB0000F0008F88888E8081000203F20202320F0
:104FC000180008F88888E8081000203F2000030037
:104FD0000000C03008080838000007182020221EF2
:104FE000020008F808000008F808203F210101210C
:104FF0003F20000808F8080800000020203F20207B
:10500000000000000808F8080800C08080807F00C9
:10501000000008F888C028180800203F2001263822
:10502000200008F8080000000000203F2020202079
:10503000300008F8F800F8F80800203F003F003F73
:10504000200008F830C00008F808203F20000718AA
:105050003F00E01008080810E0000F10202020108A
:105060000F0008F808080808F000203F210101019E
:105070000000E01008080810E0000F182424385041
:105080004F0008F8888888887000203F2000030CB3
:1050900030200070880808083800003820212122BC
:1050A0001C00180808F8080818000000203F20001D
:1050B000000008F808000008F808001F2020202041
:1050C0001F000878880000C83808000007380E0163
:1050D0000000F80800F80008F800033C0700073C4F
:1050E0000300081868808068180820302C03032CFF
:1050F00030200838C800C83808000000203F2000D1
:10510000000010080808C838080020382621202090
:105110001800000000FE020202000000007F404074
:105120004000000C30C00000000000000001063804
:10513000C00000020202FE000000004040407F006C
:105140000000000004020202040000000000000051
:10515000000000000000000000008080808080804F
:105160008080000202040000000000000000000037
:10517000000000008080808000000019242222228C
:105180003F2008F8008080000000003F112020111F
:105190000E000000008080800000000E1120202002
:1051A0001100000000808088F800000E11202010FF
:1051B0003F200000808080800000001F22222222E9
:1051C0001300008080F0888888180020203F20206D
:1051D00000000000808080808000006B9494949395
:1051E000600008F8008080800000203F210000203F
:1051F0003F2000809898000000000020203F2020E1
:105200000000000000809898000000C08080807F2F
:10521000000008F8000080808000203F24022D302C
:105220002000000808F8000000000020203F202097
:1052300000008080808080808000203F20003F2010
:10524000003F8080008080800000203F21000020FF
:105250003F200000808080800000001F2020202050
:105260001F00808000808000000080FFA1202011AE
:105270000E000000008080808000000E112020A021
:10528000FF80808080008080800020203F212000DF
:1052900001000000808080808000003324242424CA
:1052A0001900008080E0808000000000001F2020A6
:1052B00000008080000000808000001F202020105F
:1052C0003F20808080000080808000010E30080632
:1052D000010080800080008080800F300C030C3043
:1052E0000F0000808000808080000020312E0E3171
:1052F0002000808080000080808080818E70180671
:10530000010000808080808080000021302C2221DC
:10531000300000000000807C020200000000003F1E
:10532000404000000000FF00000000000000FF00FF
:1053300000000002027C800000000040403F0000AE
:105340000000000601010202040400000000000049
:105350000000000001000200010003000100020043
:10536000010004000100020001000300010002002E
:10537000010005000100020001000300010002001D
:10538000010004000100020001000300010002000E
:1053900001000600010002000100030001000200FC
:1053A00001000400010002000100030001000200EE
:1053B00001000500010002000100030001000200DD
:1053C00001000400010002000100030001000200CE
:1053D00001000700010002000100030001000200BB
:1053E00001000400010002000100030001000200AE
:1053F000010005000100020001000300010002009D
:10540000010004000100020001000300010002008D
:10541000010006000100020001000300010002007B
:10542000010004000100020001000300010002006D
:10543000010005000100020001000300010002005C
:10544000010004000100020001000300010002004D
:105450000100000001000000785634120A0010001C
:105460000000000000000000000000000000050037
:1054700010001F00000000000500100000000000E8
:10548000000004000000040000000400000004000C
:105490000100010001008000010016001000010061
:1054A00080000100010020004C00E80301001E0103
:1054B0003A0B0000D454000800000020740E0000D5
:1054C000D8480008F85A0008740E0020D4190000CB
:1054D0006849000801431813808080C04060203074
:1054E0001018080C0C0406060602010E2A82C2726D
:1054F000121E451CC0C04045101F20B0F06030187F
:105500000808088888C878F058584C4C76FACA0AB7
:105510001AD272321A0F0F03295A19019811060470
:105520000C0818101C2C6646C28381810101463A82
:1055300060878B0603140126180B071D18303020D6
:10554000203F7FC1CE1C701C074035BFE16060006A
:105550000B10F07C0E030130782C340C221000214B
:105560002FC0E0F9BBAB634646C48C8C88885C17BF
:10557000111030E06060602030103030306040C08A
:1055800080600880C04040407E03B00903060404E8
:1055900004E8FF8BF3080850081F38E080013FF84B
:1055A000337FE02811E1B71E08080848EACE5E12F2
:1055B000103038ED8744080D121C1C1810101030E4
:1055C000206060C08092180EF0D8888C0406060611
:1055D000037FEF2120012A6049692A0C1C0F7BD030
:1055E000C638170103070F889C1018181011373C94
:1055F0001C040107040C0808880118098C868380A4
:105600008084868706390121C80B20010103060C1E
:10561000181070C055291719012A071C380D1018C9
:105620001B1E1E0B19316143C6FC271C030F1830CB
:1056300099310C11A060C04058080E1A72C3C38182
:1056400001010912AA3F0103020206040103260612
:10565000031934193529013A03A24C0602035D29C6
:105660004D19AE7F1830306060CC9DEF0103070EFE
:105670000C38DE0162398E2E040C081810900629B1
:10568000604061233E2CC0301006B260281280C0FA
:10569000C0E0F0F0F8FCFEFEFF3F0701FEFF0FF256
:1056A00071180803070F1F3F7FFF013BFEF0791FB2
:1056B000078F9CB83040F2190B691B7901180BFE5B
:1056C000FEFCFCF8F0F0E0C0C0218148081010108A
:1056D00020204040136F03E028080202611CC0F044
:1056E000F87579012A1F180B11FF1FF1480C032FC1
:1056F0001F7FFF580C040603013C89A32C030F3FB6
:105700003BC989598D3BF8F0751C060408838B430F
:105710008095780940602030381C1F0F2D12F91435
:10572000071F7F2A0201041A060202180B80C040DC
:105730002020301010180801641810101B0707B83B
:105740002AFF881DFF7F3F1F01898E8BFEF8764957
:10575000B54C2020408A1E80C0FCFF7F3039862C4B
:10576000FEF8E0151BC0605D295C5A085B0313F06E
:105770001C900C40643C30F018080DFE0404220319
:1057800038083FCF331D1C32E26B79815EFF7FFC0E
:10579000F0C0844D083060807C60082121428689F9
:1057A0000911880BC37F1F0F071F3F0F1EFEAC7927
:1057B000578B040C8D19B4F901A1480E60C0030683
:1057C00018080683C0E0F0F8FE7B6C3F0F07399C99
:1057D000C0643853B80C1C2040C080818181C2C293
:1057E000026E5B8EB0AC395CD8118888F8FCFC7C0A
:1057F0003C1E1E0E060603030301011E03C3730FA6
:1058000007F85155C060380F180E01030F3FFFBF56
:105810007F3F3711101018BC1D040406023B01180D
:1058200016010302020219041E020206040627C81A
:105830001301060C1810306041C387070F1F3F2368
:10584000604040E7299B3FC06030180C067B1D80FC
:1058500080E030F6CA0361380901070C0810307087
:10586000F0015AE0D4012F199A1C060C088C1A205A
:10587000843EC1C1E1E1F10118086141404060206E
:1058800030DC2B1C64DA011C5C80E1FF011BFEFC98
:1058900001011918373C68746D6C3E3C626F647985
:1058A0003E3C6120687265663D222F454E5445524C
:1058B000223E3C696E70757420747970653D224299
:1058C0007574746F6E222076616C750F49231E20EB
:1058D0007374796C0E1823706F736974696F6E3A04
:1058E0006162736F6C7574653B746F703A35302507
:1058F0003B6C6566743A3430254E3A2F4F19089A3E
:10590000616B0D1C504C41596A39220925691909EE
:105910000916690E1C4C454156456A492309256BF9
:10592000FA366B1E2F626F6479075668746D6C3E91
:105930002D010203040420090607080902040608D1
:1059400084A24A04691911200F0202FAFAAAAAFFD6
:10595000FFAAAAFAFA0202100F4272723A7A424B76
:105960005B5262621377661016203C1CFFFFB0B4D6
:1059700024243F3FE4E4242420020203FFFF300BF1
:1059800001051D59C1FF7F010101500CF8F8484C79
:105990004F4B4A4848F8F84CFFFF44011929112C95
:1059A000202424381009243010FFFF10F0F01010CC
:1059B000081C1F0B0C0D4F6E341C0F23607F3F180B
:1059C0000880C060F8FF0702351DE0703C1CA42170
:1059D000200D7F7F0406033F7F4040407878100A07
:1059E00003050911FF118905C312E012F049622174
:1059F000073D4428FF11AA44700B8301384482926A
:105A0000927401831E7C44C7017D01990519C1412F
:105A10009A01028139FB013C69419949FA0101A1CE
:105A20002A4001212A6D01212A6001791501642A89
:105A3000DB010915072ADA01212AD801212AC00130
:105A40000915072A800101352A06010918071CE6F5
:105A50006620076A86157A861C2A8601180A8080C5
:105A60008686068686C0C00C0E1C0606D030764D93
:105A70002907013113601C12FE1301021009C4181A
:105A800020029E63B20E1DFF8181FFF24440300F61
:105A900012FF180923EAAABFAAEA033F0B012DBC93
:105AA000808080080115240E0C082A010131490468
:105AB0001D81808081021901B91706110101090CAD
:105AC0000E0A14C0012178081E21404050215E08B2
:105AD000012A4DFFFFC1C10409232D08152280FCB6
